:020000040000FA
:08000000803102288731F62F40
:100DC6008631E826863180310228C1302000A20013
:100DD6000B30A300A001A101A801A901A601A7014A
:100DE6000130A4000030A500E62F20002908803A33
:100DF600F0002508803A7002031D032F24082802FC
:100E06000318062F072F772F20002508A90024088E
:100E1600A8002908A7002808A6003D2F0130A8072A
:100E26000030A93D2609F0002709F100F00A031950
:100E3600F10A28087007F2002908713DF30008300E
:100E460072067304031D282F292F3D2F2608F73E0F
:100E5600F000FF30273DF10020352A3E860087014D
:100E66007008C03F7108C13F0130A0070030A13DA6
:100E76003D2F3D2F2908803AF0002308803A700262
:100E8600031D472F2208280203184A2F4B2F712FC4
:100E9600200029088500280884000030840788304F
:100EA600853D0008F0002609F1002709F200F10A45
:100EB6000319F20A28087107F3002908723DF400A5
:100EC6000030730784008830743D85000008700682
:100ED60003196E2F6F2F112F712F712FFF302000E6
:100EE600A807FF30A93DE22F20002508A700240807
:100EF600A600A92F0130A8070030A93D2609F00059
:100F06002709F100F00A0319F10A28087007F20010
:100F16002908713DF300083072067304031D942FEF
:100F2600952FA92F2608F73EF000FF30273DF10048
:100F360020352A3E860087017008C03F7108C13FF0
:100F46000130A0070030A13DA92FA92F2908803A1A
:100F5600F0002308803A7002031DB32F22082802EE
:100F66000318B62FB72FDD2F200029088500280883
:100F76008400003084078830853D0008F00026098B
:100F8600F1002709F200F10A0319F20A280871078D
:100F9600F3002908723DF40000307307840088309E
:100FA600743D8500000870060319DA2FDB2F7D2FAC
:100FB600DD2FDD2FFF302000A807FF30A93D0130CF
:100FC600A4070030A53D2508803AF0002308803AA2
:100FD6007002031DF02F22082402031CF32FF42FA6
:100FE600F82EF52F08002000AA01AB01AC01AD01D7
:100FF600AE01AF0120008631E32E4D3461346534F5
:10100600633465346E346134733424344C346F3451
:10101600723465346D342034693470347334753405
:101026006D34203464346F346C346F34723420344D
:10103600733469347434203461346D3465347434F3
:101046002C34203463346F346E3473346534633433
:1010560074346534743475346534723420346134D0
:1010660064346934703469347334633469346E3487
:101076006734203465346C34693474342E34203447
:10108600413465346E34653461346E3420346334EF
:101096006F346D346D346F3464346F3420346C3493
:1010A6006934673475346C3461342034653467349C
:1010B60065347434203464346F346C346F34723471
:1010C6002E342034413465346E34653461346E34E4
:1010D60020346D3461347334733461342E342034E7
:1010E600433475346D34203473346F346334693467
:1010F6006934733420346E34613474346F3471342B
:10110600753465342034703465346E346134743427
:10111600693462347534733420346534743420345D
:101126006D34613467346E34693473342034643416
:1011360069347334203470346134723474347534E1
:101146007234693465346E34743420346D346F34DB
:101156006E347434653473342C3420346E34613414
:1011660073346334653474347534723420347234B1
:10117600693464346934633475346C347534733467
:1011860020346D34753473342E34203444346F3443
:101196006E346534633420347134753461346D349F
:1011A6002034663465346C34693473342C3420341A
:1011B60075346C3474347234693463346934653428
:1011C600733420346E34653463342C3420347034F4
:1011D60065346C346C3465346E347434653473340D
:1011E6007134753465342034653475342C342034C8
:1011F6007034723465347434693475346D34203423
:1012060071347534693473342C3420347334653452
:101216006D342E3420344E3475346C346C34613471
:10122600203463346F346E347334653471347534FA
:101236006134743420346D346134733473346134FE
:1012460020347134753469347334203465346E3423
:1012560069346D342E34203444346F346E3465343E
:1012660063342034703465346434653420346A342D
:101276007534733474346F342C34203466347234D9
:1012860069346E34673469346C346C3461342034B8
:10129600763465346C342C34203461346C346934DF
:1012A600713475346534743420346E346534633483
:1012B6002C342034763475346C347034753474348C
:1012C6006134743465342034653467346534743479
:1012D6002C34203461347234633475342E34203423
:1012E60049346E34203465346E3469346D342034B8
:1012F6006A347534733474346F342C342034723455
:1013060068346F346E346334753473342034753412
:1013160074342C34203469346D347034653472344A
:101326006434693465347434203461342C342034A4
:10133600763465346E3465346E34613474346934AD
:1013460073342034763469347434613465342C341F
:1013560020346A347534733474346F342E34203444
:101366004E3475346C346C3461346D3420346434EA
:1013760069346334743475346D34203466346534BA
:101386006C346934733420346534753420347034E5
:1013960065346434653420346D346F346C346C34A5
:1013A6006934733420347034723465347434693477
:1013B60075346D342E34203449346E3474346534C7
:1013C6006734653472342034743469346E3463346B
:1013D6006934643475346E3474342E3420344334B2
:1013E6007234613473342034643461347034693453
:1013F6006234753473342E3420345634693476347A
:1014060061346D3475347334203465346C3465342A
:101416006D3465346E34743475346D3420347334FD
:1014260065346D3470346534723420346E34693406
:10143600733469342E342034413465346E34653463
:1014460061346E342034763475346C3470347534CB
:101456007434613474346534203465346C346534E2
:101466006934663465346E346434203474346534D7
:101476006C346C34753473342E3420344134653412
:101486006E34653461346E3420346C3465346F34B4
:1014960020346C346934673475346C3461342C34DC
:1014A600203470346F347234743474346934743460
:1014B6006F3472342034653475342C3420346334FC
:1014C6006F346E3473346534713475346134743406
:1014D6002034763469347434613465342C342034E1
:1014E60065346C3465346934663465346E3464341A
:1014F6002034613463342C34203465346E346934DA
:101506006D342E34203441346C346934713475347E
:1015160061346D3420346C346F34723465346D3418
:10152600203461346E34743465342C34203464349D
:1015360061347034693462347534733420346934F8
:101546006E342C342034763469347634653472340F
:1015560072346134203471347534693473342C3404
:1015660020346634653475346734693461347434D0
:10157600203461342C342034743465346C346C3447
:10158600753473342E3420345034683461347334F3
:1015960065346C346C347534733420347634693481
:1015A6007634653472347234613420346E34753472
:1015B6006C346C34613420347534743420346D34B6
:1015C600653474347534733420347634613472344B
:1015D60069347534733420346C3461346F34723446
:1015E6006534653474342E3420345134753469349A
:1015F600733471347534653420347234753474340C
:10160600723475346D342E342034413465346E347E
:10161600653461346E34203469346D347034653425
:10162600723464346934653474342E342034453469
:101636007434693461346D34203475346C347434E4
:1016460072346934633469346534733420346E34E7
:101656006934733469342034763465346C34203418
:10166600613475346734753465342E34203443342C
:101676007534723461346234693474347534723456
:10168600203475346C346C3461346D3463346F34A7
:101696007234703465347234203475346C34743476
:1016A60072346934633469346534733420346E3487
:1016B6006934733469342E3420344E3461346D34D5
:1016C60020346534673465347434203464347534B6
:1016D60069342E34203445347434693461346D34BD
:1016E6002034723468346F346E3463347534733432
:1016F6002E3420344D3461346534633465346E34AD
:10170600613473342034743465346D347034753414
:1017160073342C342034743465346C346C3475343E
:101726007334203465346734653474342034633458
:101736006F346E34643469346D3465346E347434A5
:1017460075346D342034723468346F346E346334D7
:10175600753473342C342034733465346D3420344A
:101766007134753461346D342034733465346D34BA
:1017760070346534723420346C34693462346534C0
:1017860072346F342C342034733469347434203416
:1017960061346D34653474342034613464346934AE
:1017A600703469347334633469346E346734203486
:1017B600733465346D3420346E3465347134753465
:1017C60065342034733465346434203469347034B9
:1017D600733475346D342E3420344E3461346D34A4
:1017E60020347134753461346D3420346E3475347C
:1017F6006E3463342C34203462346C3461346E3489
:101806006434693474342034763465346C342C345E
:1018160020346C3475346334743475347334203442
:10182600703475346C34763469346E3461347234A1
:101836002C342034683465346E3464347234653440
:101846007234693474342034693464342C3420346A
:101856006C346F34723465346D342E3420344D3428
:1018660061346534633465346E34613473342034E2
:101876006E346534633420346F34643469346F34C1
:10188600203465347434203461346E3474346534F1
:101896002034743469346E34633469346434753492
:1018A6006E3474342034743465346D347034753465
:1018B60073342E34203444346F346E3465346334D8
:1018C60020347634693474346134653420347334A6
:1018D60061347034693465346E342034753474344C
:1018E60020346C3469346234653472346F34203495
:1018F600763465346E3465346E34613474346934E8
:101906007334203466346134753463346934623434
:10191600753473342E3420344E3475346C346C3450
:1019260061346D3420347134753469347334203441
:1019360061346E34743465342E3420344534743452
:10194600693461346D34203473346934743420342A
:1019560061346D346534743420346F3472346334D6
:10196600693420346534673465347434203465341E
:1019760072346F34733420346634613475346334AE
:1019860069346234753473342034743469346E3493
:1019960063346934643475346E3474342E342034CC
:1019A600443475346934733420346C3465346F349C
:1019B6002E3420345334653464342034663472341F
:1019C60069346E34673469346C346C346134203471
:1019D6006D3461347534723469347334203473343D
:1019E60069347434203461346D346534743420348D
:1019F6006E346934623468342E34203444346F349F
:101A06006E3465346334203473346F346434613433
:101A16006C34653473342034733461346734693418
:101A2600743474346934733420346D3461346734F7
:101A36006E3461342E3420345334653464342034A7
:101A460063346F346E347334653471347534613491
:101A560074342C3420346C3465346F34203465345B
:101A660067346534743420346234693462346534DE
:101A76006E34643475346D34203473346F346434A6
:101A860061346C34653473342C34203461347534E9
:101A96006734753465342034763465346C3469348F
:101AA6007434203463347534723473347534733457
:101AB60020346E3475346E3463342C3420347134EF
:101AC600753469347334203467347234613476344F
:101AD60069346434613420346D34613467346E346F
:101AE600613420346D3469342034613420346C34EC
:101AF60069346234653472346F342E34203446349B
:101B060075347334633465342034763475346C3408
:101B16007034753474346134743465342034653407
:101B26006C3465346934663465346E346434203418
:101B3600733461347034693465346E342E34203431
:101B460056346534733474346934623475346C34A1
:101B560075346D342034703475347234753473349E
:101B660020347134753461346D342C34203473343C
:101B7600633465346C346534723469347334713467
:101B8600753465342034753474342C3420346D3413
:101B96006F346C346C346934733420347334653484
:101BA60064342C3420346E346F346E3475346D34B2
:101BB6006D3479342034693464342C3420346D34F3
:101BC60065347434753473342E3420344E3475349D
:101BD6006C346C3461346D34203461346334633472
:101BE60075346D34733461346E3420346C346F3430
:101BF600723465346D34203469346E342034643480
:101C0600753469342E342034433472346134733479
:101C1600203475346C347434723469346334693402
:101C26006534733420346D34693420346534753446
:101C36002034743475347234703469347334203417
:101C4600683465346E34643472346534723469349D
:101C5600743420346634723469346E3467346934CB
:101C66006C346C3461342E34203456346534733419
:101C760074346934623475346C3475346D3420349C
:101C860061346E347434653420346934703473349A
:101C960075346D3420347034723469346D3469347B
:101CA6007334203469346E342034663461347534C8
:101CB6006334693462347534733420346F34723467
:101CC6006334693420346C34753463347434753455
:101CD6007334203465347434203475346C3474347D
:101CE60072346934633465347334203470346F3439
:101CF6007334753465347234653420346334753422
:101D0600623469346C346934613420344334753454
:101D16007234613465343B34203449346E342034B3
:101D26006134633420346434753469342034713456
:101D360075346934733420346D3469342034633433
:101D46006F346E3473346534633474346534743488
:101D560075346534723420346C34613463346934D8
:101D66006E34693461342E3420344E3461346D342B
:101D760020347034723465347434693475346D3497
:101D860020347434753472347034693473342034C6
:101D960065347434203461347234633475342E34CB
:101DA60020344434753469347334203461347234E5
:101DB60063347534203474346F34723474346F344D
:101DC60072342C3420347334753473346334693488
:101DD600703469347434203465346734653474344B
:101DE6002C34203469346D34703465347234643480
:101DF60069346534743420346E34653463342C3479
:101E0600203469346D347034653472346434693422
:101E160065347434203469346134633475346C3415
:101E2600693473342C342034693470347334753423
:101E36006D342E34203453346534643420346134A4
:101E46006C3469347134753461346D3420347534CE
:101E56006C347434723469346334653473342034C6
:101E66006D34613475347234693473342E342034ED
:101E760049346E34743465346734653472342034CE
:101E860061346E34743465342034613472346334AE
:101E960075342C34203461346334633475346D34D2
:101EA600733461346E34203461342C34203463341A
:101EB6006F346E3473346534633474346534743417
:101EC600753465347234203465346734653474345B
:101ED6002C34203470346F34733475346534723472
:101EE60065342034753474342C3420346D346134C4
:101EF60075347234693473342E3420345034723469
:101F060061346534733465346E347434203461342A
:101F160064346934703469347334633469346E34C8
:101F260067342E3420345034683461347334653465
:101F36006C346C3475347334203475346C346C34CE
:101F460061346D3463346F34723470346534723492
:101F5600203469347034733475346D3420347234FB
:101F660075347434723475346D3420346E3475348B
:101F76006E3463342E3420344E3475346E34633408
:101F860020346E346F346E3475346D346D34793478
:101F960020346D3465347434753473342E342034FF
:101FA60056346534733474346934623475346C343D
:101FB60075346D34203476346F346C34753474343F
:101FC600703461347434203470347234653474344B
:101FD600693475346D3420346C3469346234653454
:101FE60072346F342E342034433472346134733493
:101FF60020346934643420346434753469342E34BE
:102006002034413465346E34653461346E342034A2
:10201600753474342034653472346F347334203438
:102026006534743420346E34693473346C3420343B
:102036007334613467346934743474346934733492
:1020460020347634653473347434693462347534C8
:102056006C3475346D342E3420344E3475346C340F
:102066006C3461346D3420346E3475346C346C34B5
:1020760061342034653472346F3473342C34203434
:1020860075346C3474347234693463346934653449
:1020960073342034733469347434203461346D34C9
:1020A600653474342C3420346E346F346E347534A5
:1020B6006D346D3479342034693464342C342034EE
:1020C60069346D347034653472346434693465341B
:1020D6007434203466346534753467346934613455
:1020E60074342C34203470346534643465342E34BE
:1020F600203453346534643420346C3465346334AA
:102106007434753473342E34203444346F346E345E
:102116006534633420346D346F346C346C34693414
:1021260073342034683465346E3464347234653400
:1021360072346934743420347234693473347534C7
:1021460073342E3420345034683461347334653437
:102156006C346C347534733420346E3465346334C3
:102166002034733465346D34203469346E3420344D
:102176006A347534733474346F342034703465348F
:102186006C346C3465346E34743465347334713441
:1021960075346534203466346134633469346C34A0
:1021A60069347334693473342E34203445347434CA
:1021B600693461346D34203469346D347034653477
:1021C60072346434693465347434203469346D345B
:1021D600703465347234643469346534743420344C
:1021E6006F347234633469342E3420344E3475348B
:1021F6006E34633420346E346534633420346E3484
:1022060065347134753465342E3420345034683472
:102216006134733465346C346C34753473342034FF
:102226006C3465346F34203464346F346C346F34FA
:1022360072342C342034743465346D34703475340F
:10224600733420346E346F346E342C34203461345D
:102256007534633474346F347234203465347434B2
:102266002C342034683465346E3464347234653406
:102276007234693474342034713475346934733487
:102286002C3420346E346934733469342E3420345B
:102296004334753472346134623469347434753459
:1022A600723420346C346934673475346C34613478
:1022B6002034733461347034693465346E342C34AC
:1022C6002034743469346E34633469346434753458
:1022D6006E34743420346E346F346E342C342034BF
:1022E60065347534693473346D346F346434203432
:1022F600763469347434613465342C342034703463
:102306006F3473347534653472346534203469340B
:102316006D347034653472346434693465347434BD
:102326002C3420346C3465346F342E3420344D34E0
:1023360061346534633465346E3461347334203407
:102346006D3461346C34653473347534613464349B
:1023560061342E342034503472346134653473342D
:1023660065346E347434203463346F346E346734B9
:1023760075346534203465347234613474342034F1
:102386006134743420346D3461347334733461349D
:102396002E34203453346534643420346334753435
:1023A600723473347534733420347434753472343F
:1023B6007034693473342034763469347434613457
:1023C6006534203474346F34723474346F34723438
:1023D6002E34203444346F346E3465346334203400
:1023E60070346F3473347534653472346534203424
:1023F600763475346C3470347534743461347434B2
:102406006534203461347234633475342E342034A8
:10241600503468346134733465346C346C347534D8
:102426007334203461346334633475346D347334F7
:1024360061346E34203463347534723473347534D5
:1024460073342034763465346C34693474342E3401
:1024560020345634653473347434693462347534D4
:102466006C3475346D34203461346E3474346534B0
:10247600203469347034733475346D3420347034D8
:10248600723469346D3469347334203469346E348B
:102496002034663461347534633469346234753497
:1024A600733420346F3472346334693420346C34BA
:1024B6007534633474347534733420346534743449
:1024C600203475346C34743472346934633465344E
:1024D6007334203470346F34733475346534723425
:1024E6006534203463347534623469346C34693449
:1024F60061342034433475347234613465343B348A
:102506002034533465346434203461346C34693493
:102516007134753461346D342C3420346E3469343E
:102526007334693420347134753469347334203427
:1025360070346F34723474347434693474346F3470
:102546007234203463346F346E34673475346534D2
:102556002C34203465346C34693474342034653456
:1025660072346134743420346534753469347334A8
:102576006D346F34643420346F34723463346934A8
:102586002C34203461346334203470346C34613438
:1025960063346534723461347434203464346F3493
:1025A6006C346F34723420346C3465346334743470
:1025B600753473342034713475346934733420348B
:1025C6006F347234633469342E34203450346834B2
:1025D6006134733465346C346C347534733420343C
:1025E60063346F346E3473346534633474346534F1
:1025F6007434753465347234203476346534733407
:1026060074346934623475346C3475346D34203402
:1026160065346C34693474342E3420344134653472
:102626006E34653461346E342034743465346C34FD
:102636006C347534733420346D34653474347534C5
:1026460073342C34203462346934623465346E3425
:10265600643475346D3420347334653464342C3406
:10266600203470346F3473347534653472346534A1
:102676002034613463342C3420346D346134743442
:1026860074346934733420346E346F346E342C34BD
:1026960020346E3475346E3463342E34203456341C
:1026A6006534733474346934623475346C34753417
:1026B6006D3420346634723469346E346734693468
:1026C6006C346C346134203470346534643465346D
:1026D6002034733469347434203461346D34653491
:1026E60074342034613475346734753465342E346B
:1026F600203449346E342034743475347234703472
:10270600693473342E342034503465346C346C346C
:1027160065346E34743465347334713475346534A9
:10272600203470346F3473347534653472346534E0
:102736002E34203450347234613465347334653445
:102746006E347434203474347534723470346934AD
:1027560073342E342034413465346E346534613438
:102766006E34203470346F34733475346534723497
:0C27760065342C34203474346F34723419
:020000040001F9
:0A000E008C3FFF3F9F3FFF3FFF3F85
:00000001FF
